:020000000000fe
:020001000001fc
:020002000002fa
:020003000002f9
:020004000003f7
:020005000004f5
:020006000005f3
:020007000005f2
:020008000006f0
:020009000007ee
:02000a000008ec
:02000b000009ea
:02000c000009e9
:02000d00000ae7
:02000e00000be5
:02000f00000ce3
:02001000000de1
:02001100000de0
:02001200000ede
:02001300000fdc
:020014000010da
:020015000010d9
:020016000011d7
:020017000012d5
:020018000013d3
:020019000014d1
:02001a000014d0
:02001b000015ce
:02001c000016cc
:02001d000017ca
:02001e000018c8
:02001f000018c7
:020020000019c5
:02002100001ac3
:02002200001bc1
:02002300001bc0
:02002400001cbe
:02002500001dbc
:02002600001eba
:02002700001fb8
:02002800001fb7
:020029000020b5
:02002a000021b3
:02002b000022b1
:02002c000022b0
:02002d000023ae
:02002e000024ac
:02002f000025aa
:020030000026a8
:020031000026a7
:020032000027a5
:020033000028a3
:020034000029a1
:020035000029a0
:02003600002a9e
:02003700002b9c
:02003800002c9a
:02003900002d98
:02003a00002d97
:02003b00002e95
:02003c00002f93
:02003d00003091
:02003e0000318f
:02003f0000318e
:0200400000328c
:0200410000338a
:02004200003488
:02004300003487
:02004400003585
:02004500003683
:02004600003781
:0200470000387f
:0200480000387e
:0200490000397c
:02004a00003a7a
:02004b00003b78
:02004c00003b77
:02004d00003c75
:02004e00003d73
:02004f00003e71
:02005000003f6f
:02005100003f6e
:0200520000406c
:0200530000416a
:02005400004268
:02005500004267
:02005600004365
:02005700004463
:02005800004561
:0200590000465f
:02005a0000465e
:02005b0000475c
:02005c0000485a
:02005d00004958
:02005e00004957
:02005f00004a55
:02006000004b53
:02006100004c51
:02006200004d4f
:02006300004d4e
:02006400004e4c
:02006500004f4a
:02006600005048
:02006700005047
:02006800005145
:02006900005243
:02006a00005341
:02006b00005340
:02006c0000543e
:02006d0000553c
:02006e0000563a
:02006f00005738
:02007000005737
:02007100005835
:02007200005933
:02007300005a31
:02007400005a30
:02007500005b2e
:02007600005c2c
:02007700005d2a
:02007800005e28
:02007900005e27
:02007a00005f25
:02007b00006023
:02007c00006121
:02007d00006120
:02007e0000621e
:02007f0000631c
:0200800000641a
:02008100006419
:02008200006517
:02008300006615
:02008400006713
:02008500006811
:02008600006810
:0200870000690e
:02008800006a0c
:02008900006b0a
:02008a00006b09
:02008b00006c07
:02008c00006d05
:02008d00006e03
:02008e00006e02
:02008f00006f00
:020090000070fe
:020091000071fc
:020092000071fb
:020093000072f9
:020094000073f7
:020095000074f5
:020096000075f3
:020097000075f2
:020098000076f0
:020099000077ee
:02009a000078ec
:02009b000078eb
:02009c000079e9
:02009d00007ae7
:02009e00007be5
:02009f00007be4
:0200a000007ce2
:0200a100007de0
:0200a200007ede
:0200a300007edd
:0200a400007fdb
:0200a5000080d9
:0200a6000081d7
:0200a7000081d6
:0200a8000082d4
:0200a9000083d2
:0200aa000084d0
:0200ab000085ce
:0200ac000085cd
:0200ad000086cb
:0200ae000087c9
:0200af000088c7
:0200b0000088c6
:0200b1000089c4
:0200b200008ac2
:0200b300008bc0
:0200b400008bbf
:0200b500008cbd
:0200b600008dbb
:0200b700008eb9
:0200b800008eb8
:0200b900008fb6
:0200ba000090b4
:0200bb000091b2
:0200bc000091b1
:0200bd000092af
:0200be000093ad
:0200bf000094ab
:0200c0000094aa
:0200c1000095a8
:0200c2000096a6
:0200c3000097a4
:0200c4000097a3
:0200c5000098a1
:0200c60000999f
:0200c700009a9d
:0200c800009a9c
:0200c900009b9a
:0200ca00009c98
:0200cb00009d96
:0200cc00009d95
:0200cd00009e93
:0200ce00009f91
:0200cf0000a08f
:0200d00000a08e
:0200d10000a18c
:0200d20000a28a
:0200d30000a388
:0200d40000a387
:0200d50000a485
:0200d60000a583
:0200d70000a582
:0200d80000a680
:0200d90000a77e
:0200da0000a87c
:0200db0000a87b
:0200dc0000a979
:0200dd0000aa77
:0200de0000ab75
:0200df0000ab74
:0200e00000ac72
:0200e10000ad70
:0200e20000ae6e
:0200e30000ae6d
:0200e40000af6b
:0200e50000b069
:0200e60000b167
:0200e70000b166
:0200e80000b264
:0200e90000b362
:0200ea0000b460
:0200eb0000b45f
:0200ec0000b55d
:0200ed0000b65b
:0200ee0000b65a
:0200ef0000b758
:0200f00000b856
:0200f10000b954
:0200f20000b953
:0200f30000ba51
:0200f40000bb4f
:0200f50000bc4d
:0200f60000bc4c
:0200f70000bd4a
:0200f80000be48
:0200f90000be47
:0200fa0000bf45
:0200fb0000c043
:0200fc0000c141
:0200fd0000c140
:0200fe0000c23e
:0200ff0000c33c
:0201000000c439
:0201010000c438
:0201020000c536
:0201030000c634
:0201040000c633
:0201050000c731
:0201060000c82f
:0201070000c92d
:0201080000c92c
:0201090000ca2a
:02010a0000cb28
:02010b0000cb27
:02010c0000cc25
:02010d0000cd23
:02010e0000ce21
:02010f0000ce20
:0201100000cf1e
:0201110000d01c
:0201120000d11a
:0201130000d119
:0201140000d217
:0201150000d315
:0201160000d314
:0201170000d412
:0201180000d510
:0201190000d60e
:02011a0000d60d
:02011b0000d70b
:02011c0000d809
:02011d0000d808
:02011e0000d906
:02011f0000da04
:0201200000da03
:0201210000db01
:0201220000dcff
:0201230000ddfd
:0201240000ddfc
:0201250000defa
:0201260000dff8
:0201270000dff7
:0201280000e0f5
:0201290000e1f3
:02012a0000e2f1
:02012b0000e2f0
:02012c0000e3ee
:02012d0000e4ec
:02012e0000e4eb
:02012f0000e5e9
:0201300000e6e7
:0201310000e6e6
:0201320000e7e4
:0201330000e8e2
:0201340000e9e0
:0201350000e9df
:0201360000eadd
:0201370000ebdb
:0201380000ebda
:0201390000ecd8
:02013a0000edd6
:02013b0000edd5
:02013c0000eed3
:02013d0000efd1
:02013e0000efd0
:02013f0000f0ce
:0201400000f1cc
:0201410000f2ca
:0201420000f2c9
:0201430000f3c7
:0201440000f4c5
:0201450000f4c4
:0201460000f5c2
:0201470000f6c0
:0201480000f6bf
:0201490000f7bd
:02014a0000f8bb
:02014b0000f8ba
:02014c0000f9b8
:02014d0000fab6
:02014e0000fbb4
:02014f0000fbb3
:0201500000fcb1
:0201510000fdaf
:0201520000fdae
:0201530000feac
:0201540000ffaa
:0201550000ffa9
:020156000100a6
:020157000101a4
:020158000101a3
:020159000102a1
:02015a0001039f
:02015b0001039e
:02015c0001049c
:02015d0001059a
:02015e00010599
:02015f00010697
:02016000010795
:02016100010794
:02016200010892
:02016300010990
:0201640001098f
:02016500010a8d
:02016600010b8b
:02016700010b8a
:02016800010c88
:02016900010d86
:02016a00010d85
:02016b00010e83
:02016c00010f81
:02016d00010f80
:02016e0001107e
:02016f0001117c
:0201700001117b
:02017100011279
:02017200011377
:02017300011376
:02017400011474
:02017500011572
:02017600011571
:0201770001166f
:0201780001176d
:0201790001176c
:02017a0001186a
:02017b00011968
:02017c00011967
:02017d00011a65
:02017e00011b63
:02017f00011b62
:02018000011c60
:02018100011d5e
:02018200011d5d
:02018300011e5b
:02018400011e5a
:02018500011f58
:02018600012056
:02018700012055
:02018800012153
:02018900012251
:02018a00012250
:02018b0001234e
:02018c0001244c
:02018d0001244b
:02018e00012549
:02018f00012647
:02019000012646
:02019100012744
:02019200012842
:02019300012841
:0201940001293f
:0201950001293e
:02019600012a3c
:02019700012b3a
:02019800012b39
:02019900012c37
:02019a00012d35
:02019b00012d34
:02019c00012e32
:02019d00012f30
:02019e00012f2f
:02019f0001302d
:0201a00001302c
:0201a10001312a
:0201a200013228
:0201a300013227
:0201a400013325
:0201a500013423
:0201a600013422
:0201a700013520
:0201a80001351f
:0201a90001361d
:0201aa0001371b
:0201ab0001371a
:0201ac00013818
:0201ad00013916
:0201ae00013915
:0201af00013a13
:0201b000013a12
:0201b100013b10
:0201b200013c0e
:0201b300013c0d
:0201b400013d0b
:0201b500013d0a
:0201b600013e08
:0201b700013f06
:0201b800013f05
:0201b900014003
:0201ba00014101
:0201bb00014100
:0201bc000142fe
:0201bd000142fd
:0201be000143fb
:0201bf000144f9
:0201c0000144f8
:0201c1000145f6
:0201c2000145f5
:0201c3000146f3
:0201c4000147f1
:0201c5000147f0
:0201c6000148ee
:0201c7000148ed
:0201c8000149eb
:0201c900014ae9
:0201ca00014ae8
:0201cb00014be6
:0201cc00014be5
:0201cd00014ce3
:0201ce00014de1
:0201cf00014de0
:0201d000014ede
:0201d100014edd
:0201d200014fdb
:0201d3000150d9
:0201d4000150d8
:0201d5000151d6
:0201d6000151d5
:0201d7000152d3
:0201d8000152d2
:0201d9000153d0
:0201da000154ce
:0201db000154cd
:0201dc000155cb
:0201dd000155ca
:0201de000156c8
:0201df000157c6
:0201e0000157c5
:0201e1000158c3
:0201e2000158c2
:0201e3000159c0
:0201e4000159bf
:0201e500015abd
:0201e600015bbb
:0201e700015bba
:0201e800015cb8
:0201e900015cb7
:0201ea00015db5
:0201eb00015eb3
:0201ec00015eb2
:0201ed00015fb0
:0201ee00015faf
:0201ef000160ad
:0201f0000160ac
:0201f1000161aa
:0201f2000161a9
:0201f3000162a7
:0201f4000163a5
:0201f5000163a4
:0201f6000164a2
:0201f7000164a1
:0201f80001659f
:0201f90001659e
:0201fa0001669c
:0201fb0001679a
:0201fc00016799
:0201fd00016897
:0201fe00016896
:0201ff00016994
:02020000016992
:02020100016a90
:02020200016a8f
:02020300016b8d
:02020400016c8b
:02020500016c8a
:02020600016d88
:02020700016d87
:02020800016e85
:02020900016e84
:02020a00016f82
:02020b00016f81
:02020c0001707f
:02020d0001707e
:02020e0001717c
:02020f0001727a
:02021000017279
:02021100017377
:02021200017376
:02021300017474
:02021400017473
:02021500017571
:02021600017570
:0202170001766e
:0202180001766d
:0202190001776b
:02021a0001776a
:02021b00017868
:02021c00017966
:02021d00017965
:02021e00017a63
:02021f00017a62
:02022000017b60
:02022100017b5f
:02022200017c5d
:02022300017c5c
:02022400017d5a
:02022500017d59
:02022600017e57
:02022700017e56
:02022800017f54
:02022900017f53
:02022a00018051
:02022b00018050
:02022c0001814e
:02022d0001814d
:02022e0001824b
:02022f0001824a
:02023000018348
:02023100018347
:02023200018445
:02023300018444
:02023400018542
:02023500018541
:0202360001863f
:0202370001863e
:0202380001873c
:0202390001883a
:02023a00018839
:02023b00018937
:02023c00018936
:02023d00018a34
:02023e00018a33
:02023f00018b31
:02024000018b30
:02024100018c2e
:02024200018c2d
:02024300018c2c
:02024400018d2a
:02024500018d29
:02024600018e27
:02024700018e26
:02024800018f24
:02024900018f23
:02024a00019021
:02024b00019020
:02024c0001911e
:02024d0001911d
:02024e0001921b
:02024f0001921a
:02025000019318
:02025100019317
:02025200019415
:02025300019414
:02025400019512
:02025500019511
:0202560001960f
:0202570001960e
:0202580001970c
:0202590001970b
:02025a00019809
:02025b00019808
:02025c00019906
:02025d00019905
:02025e00019a03
:02025f00019a02
:02026000019a01
:02026100019bff
:02026200019bfe
:02026300019cfc
:02026400019cfb
:02026500019df9
:02026600019df8
:02026700019ef6
:02026800019ef5
:02026900019ff3
:02026a00019ff2
:02026b0001a0f0
:02026c0001a0ef
:02026d0001a0ee
:02026e0001a1ec
:02026f0001a1eb
:0202700001a2e9
:0202710001a2e8
:0202720001a3e6
:0202730001a3e5
:0202740001a4e3
:0202750001a4e2
:0202760001a4e1
:0202770001a5df
:0202780001a5de
:0202790001a6dc
:02027a0001a6db
:02027b0001a7d9
:02027c0001a7d8
:02027d0001a8d6
:02027e0001a8d5
:02027f0001a8d4
:0202800001a9d2
:0202810001a9d1
:0202820001aacf
:0202830001aace
:0202840001abcc
:0202850001abcb
:0202860001abca
:0202870001acc8
:0202880001acc7
:0202890001adc5
:02028a0001adc4
:02028b0001aec2
:02028c0001aec1
:02028d0001aec0
:02028e0001afbe
:02028f0001afbd
:0202900001b0bb
:0202910001b0ba
:0202920001b1b8
:0202930001b1b7
:0202940001b1b6
:0202950001b2b4
:0202960001b2b3
:0202970001b3b1
:0202980001b3b0
:0202990001b3af
:02029a0001b4ad
:02029b0001b4ac
:02029c0001b5aa
:02029d0001b5a9
:02029e0001b5a8
:02029f0001b6a6
:0202a00001b6a5
:0202a10001b7a3
:0202a20001b7a2
:0202a30001b8a0
:0202a40001b89f
:0202a50001b89e
:0202a60001b99c
:0202a70001b99b
:0202a80001b99a
:0202a90001ba98
:0202aa0001ba97
:0202ab0001bb95
:0202ac0001bb94
:0202ad0001bb93
:0202ae0001bc91
:0202af0001bc90
:0202b00001bd8e
:0202b10001bd8d
:0202b20001bd8c
:0202b30001be8a
:0202b40001be89
:0202b50001bf87
:0202b60001bf86
:0202b70001bf85
:0202b80001c083
:0202b90001c082
:0202ba0001c081
:0202bb0001c17f
:0202bc0001c17e
:0202bd0001c27c
:0202be0001c27b
:0202bf0001c27a
:0202c00001c378
:0202c10001c377
:0202c20001c376
:0202c30001c474
:0202c40001c473
:0202c50001c472
:0202c60001c570
:0202c70001c56f
:0202c80001c66d
:0202c90001c66c
:0202ca0001c66b
:0202cb0001c769
:0202cc0001c768
:0202cd0001c767
:0202ce0001c865
:0202cf0001c864
:0202d00001c863
:0202d10001c961
:0202d20001c960
:0202d30001c95f
:0202d40001ca5d
:0202d50001ca5c
:0202d60001cb5a
:0202d70001cb59
:0202d80001cb58
:0202d90001cc56
:0202da0001cc55
:0202db0001cc54
:0202dc0001cd52
:0202dd0001cd51
:0202de0001cd50
:0202df0001ce4e
:0202e00001ce4d
:0202e10001ce4c
:0202e20001cf4a
:0202e30001cf49
:0202e40001cf48
:0202e50001d046
:0202e60001d045
:0202e70001d044
:0202e80001d142
:0202e90001d141
:0202ea0001d140
:0202eb0001d23e
:0202ec0001d23d
:0202ed0001d23c
:0202ee0001d33a
:0202ef0001d339
:0202f00001d338
:0202f10001d337
:0202f20001d435
:0202f30001d434
:0202f40001d433
:0202f50001d531
:0202f60001d530
:0202f70001d52f
:0202f80001d62d
:0202f90001d62c
:0202fa0001d62b
:0202fb0001d729
:0202fc0001d728
:0202fd0001d727
:0202fe0001d825
:0202ff0001d824
:0203000001d822
:0203010001d821
:0203020001d91f
:0203030001d91e
:0203040001d91d
:0203050001da1b
:0203060001da1a
:0203070001da19
:0203080001da18
:0203090001db16
:02030a0001db15
:02030b0001db14
:02030c0001dc12
:02030d0001dc11
:02030e0001dc10
:02030f0001dc0f
:0203100001dd0d
:0203110001dd0c
:0203120001dd0b
:0203130001de09
:0203140001de08
:0203150001de07
:0203160001de06
:0203170001df04
:0203180001df03
:0203190001df02
:02031a0001e000
:02031b0001e0ff
:02031c0001e0fe
:02031d0001e0fd
:02031e0001e1fb
:02031f0001e1fa
:0203200001e1f9
:0203210001e1f8
:0203220001e2f6
:0203230001e2f5
:0203240001e2f4
:0203250001e2f3
:0203260001e3f1
:0203270001e3f0
:0203280001e3ef
:0203290001e3ee
:02032a0001e4ec
:02032b0001e4eb
:02032c0001e4ea
:02032d0001e4e9
:02032e0001e5e7
:02032f0001e5e6
:0203300001e5e5
:0203310001e5e4
:0203320001e6e2
:0203330001e6e1
:0203340001e6e0
:0203350001e6df
:0203360001e7dd
:0203370001e7dc
:0203380001e7db
:0203390001e7da
:02033a0001e8d8
:02033b0001e8d7
:02033c0001e8d6
:02033d0001e8d5
:02033e0001e9d3
:02033f0001e9d2
:0203400001e9d1
:0203410001e9d0
:0203420001e9cf
:0203430001eacd
:0203440001eacc
:0203450001eacb
:0203460001eaca
:0203470001ebc8
:0203480001ebc7
:0203490001ebc6
:02034a0001ebc5
:02034b0001ebc4
:02034c0001ecc2
:02034d0001ecc1
:02034e0001ecc0
:02034f0001ecbf
:0203500001ecbe
:0203510001edbc
:0203520001edbb
:0203530001edba
:0203540001edb9
:0203550001eeb7
:0203560001eeb6
:0203570001eeb5
:0203580001eeb4
:0203590001eeb3
:02035a0001efb1
:02035b0001efb0
:02035c0001efaf
:02035d0001efae
:02035e0001efad
:02035f0001efac
:0203600001f0aa
:0203610001f0a9
:0203620001f0a8
:0203630001f0a7
:0203640001f0a6
:0203650001f1a4
:0203660001f1a3
:0203670001f1a2
:0203680001f1a1
:0203690001f1a0
:02036a0001f29e
:02036b0001f29d
:02036c0001f29c
:02036d0001f29b
:02036e0001f29a
:02036f0001f299
:0203700001f397
:0203710001f396
:0203720001f395
:0203730001f394
:0203740001f393
:0203750001f392
:0203760001f490
:0203770001f48f
:0203780001f48e
:0203790001f48d
:02037a0001f48c
:02037b0001f48b
:02037c0001f589
:02037d0001f588
:02037e0001f587
:02037f0001f586
:0203800001f585
:0203810001f584
:0203820001f583
:0203830001f681
:0203840001f680
:0203850001f67f
:0203860001f67e
:0203870001f67d
:0203880001f67c
:0203890001f77a
:02038a0001f779
:02038b0001f778
:02038c0001f777
:02038d0001f776
:02038e0001f775
:02038f0001f774
:0203900001f773
:0203910001f871
:0203920001f870
:0203930001f86f
:0203940001f86e
:0203950001f86d
:0203960001f86c
:0203970001f86b
:0203980001f969
:0203990001f968
:02039a0001f967
:02039b0001f966
:02039c0001f965
:02039d0001f964
:02039e0001f963
:02039f0001f962
:0203a00001f961
:0203a10001fa5f
:0203a20001fa5e
:0203a30001fa5d
:0203a40001fa5c
:0203a50001fa5b
:0203a60001fa5a
:0203a70001fa59
:0203a80001fa58
:0203a90001fa57
:0203aa0001fb55
:0203ab0001fb54
:0203ac0001fb53
:0203ad0001fb52
:0203ae0001fb51
:0203af0001fb50
:0203b00001fb4f
:0203b10001fb4e
:0203b20001fb4d
:0203b30001fb4c
:0203b40001fc4a
:0203b50001fc49
:0203b60001fc48
:0203b70001fc47
:0203b80001fc46
:0203b90001fc45
:0203ba0001fc44
:0203bb0001fc43
:0203bc0001fc42
:0203bd0001fc41
:0203be0001fc40
:0203bf0001fc3f
:0203c00001fd3d
:0203c10001fd3c
:0203c20001fd3b
:0203c30001fd3a
:0203c40001fd39
:0203c50001fd38
:0203c60001fd37
:0203c70001fd36
:0203c80001fd35
:0203c90001fd34
:0203ca0001fd33
:0203cb0001fd32
:0203cc0001fd31
:0203cd0001fd30
:0203ce0001fd2f
:0203cf0001fe2d
:0203d00001fe2c
:0203d10001fe2b
:0203d20001fe2a
:0203d30001fe29
:0203d40001fe28
:0203d50001fe27
:0203d60001fe26
:0203d70001fe25
:0203d80001fe24
:0203d90001fe23
:0203da0001fe22
:0203db0001fe21
:0203dc0001fe20
:0203dd0001fe1f
:0203de0001fe1e
:0203df0001fe1d
:0203e00001fe1c
:0203e10001fe1b
:0203e20001fe1a
:0203e30001fe19
:0203e40001ff17
:0203e50001ff16
:0203e60001ff15
:0203e70001ff14
:0203e80001ff13
:0203e90001ff12
:0203ea0001ff11
:0203eb0001ff10
:0203ec0001ff0f
:0203ed0001ff0e
:0203ee0001ff0d
:0203ef0001ff0c
:0203f00001ff0b
:0203f10001ff0a
:0203f20001ff09
:0203f30001ff08
:0203f40001ff07
:0203f50001ff06
:0203f60001ff05
:0203f70001ff04
:0203f80001ff03
:0203f90001ff02
:0203fa0001ff01
:0203fb0001ff00
:0203fc0001ffff
:0203fd0001fffe
:0203fe0001fffd
:0203ff0001fffc
:0204000001fffa
:0204010001fff9
:0204020001fff8
:0204030001fff7
:0204040001fff6
:0204050001fff5
:0204060001fff4
:0204070001fff3
:0204080001fff2
:0204090001fff1
:02040a0001fff0
:02040b0001ffef
:02040c0001ffee
:02040d0001ffed
:02040e0001ffec
:02040f0001ffeb
:0204100001ffea
:0204110001ffe9
:0204120001ffe8
:0204130001ffe7
:0204140001ffe6
:0204150001ffe5
:0204160001ffe4
:0204170001ffe3
:0204180001ffe2
:0204190001ffe1
:02041a0001ffe0
:02041b0001ffdf
:02041c0001ffde
:02041d0001fede
:02041e0001fedd
:02041f0001fedc
:0204200001fedb
:0204210001feda
:0204220001fed9
:0204230001fed8
:0204240001fed7
:0204250001fed6
:0204260001fed5
:0204270001fed4
:0204280001fed3
:0204290001fed2
:02042a0001fed1
:02042b0001fed0
:02042c0001fecf
:02042d0001fece
:02042e0001fecd
:02042f0001fecc
:0204300001fecb
:0204310001feca
:0204320001fdca
:0204330001fdc9
:0204340001fdc8
:0204350001fdc7
:0204360001fdc6
:0204370001fdc5
:0204380001fdc4
:0204390001fdc3
:02043a0001fdc2
:02043b0001fdc1
:02043c0001fdc0
:02043d0001fdbf
:02043e0001fdbe
:02043f0001fdbd
:0204400001fdbc
:0204410001fcbc
:0204420001fcbb
:0204430001fcba
:0204440001fcb9
:0204450001fcb8
:0204460001fcb7
:0204470001fcb6
:0204480001fcb5
:0204490001fcb4
:02044a0001fcb3
:02044b0001fcb2
:02044c0001fcb1
:02044d0001fbb1
:02044e0001fbb0
:02044f0001fbaf
:0204500001fbae
:0204510001fbad
:0204520001fbac
:0204530001fbab
:0204540001fbaa
:0204550001fba9
:0204560001fba8
:0204570001faa8
:0204580001faa7
:0204590001faa6
:02045a0001faa5
:02045b0001faa4
:02045c0001faa3
:02045d0001faa2
:02045e0001faa1
:02045f0001faa0
:0204600001f9a0
:0204610001f99f
:0204620001f99e
:0204630001f99d
:0204640001f99c
:0204650001f99b
:0204660001f99a
:0204670001f999
:0204680001f998
:0204690001f898
:02046a0001f897
:02046b0001f896
:02046c0001f895
:02046d0001f894
:02046e0001f893
:02046f0001f892
:0204700001f792
:0204710001f791
:0204720001f790
:0204730001f78f
:0204740001f78e
:0204750001f78d
:0204760001f78c
:0204770001f78b
:0204780001f68b
:0204790001f68a
:02047a0001f689
:02047b0001f688
:02047c0001f687
:02047d0001f686
:02047e0001f586
:02047f0001f585
:0204800001f584
:0204810001f583
:0204820001f582
:0204830001f581
:0204840001f580
:0204850001f480
:0204860001f47f
:0204870001f47e
:0204880001f47d
:0204890001f47c
:02048a0001f47b
:02048b0001f37b
:02048c0001f37a
:02048d0001f379
:02048e0001f378
:02048f0001f377
:0204900001f376
:0204910001f276
:0204920001f275
:0204930001f274
:0204940001f273
:0204950001f272
:0204960001f271
:0204970001f171
:0204980001f170
:0204990001f16f
:02049a0001f16e
:02049b0001f16d
:02049c0001f06d
:02049d0001f06c
:02049e0001f06b
:02049f0001f06a
:0204a00001f069
:0204a10001ef69
:0204a20001ef68
:0204a30001ef67
:0204a40001ef66
:0204a50001ef65
:0204a60001ef64
:0204a70001ee64
:0204a80001ee63
:0204a90001ee62
:0204aa0001ee61
:0204ab0001ee60
:0204ac0001ed60
:0204ad0001ed5f
:0204ae0001ed5e
:0204af0001ed5d
:0204b00001ec5d
:0204b10001ec5c
:0204b20001ec5b
:0204b30001ec5a
:0204b40001ec59
:0204b50001eb59
:0204b60001eb58
:0204b70001eb57
:0204b80001eb56
:0204b90001eb55
:0204ba0001ea55
:0204bb0001ea54
:0204bc0001ea53
:0204bd0001ea52
:0204be0001e952
:0204bf0001e951
:0204c00001e950
:0204c10001e94f
:0204c20001e94e
:0204c30001e84e
:0204c40001e84d
:0204c50001e84c
:0204c60001e84b
:0204c70001e74b
:0204c80001e74a
:0204c90001e749
:0204ca0001e748
:0204cb0001e648
:0204cc0001e647
:0204cd0001e646
:0204ce0001e645
:0204cf0001e545
:0204d00001e544
:0204d10001e543
:0204d20001e542
:0204d30001e442
:0204d40001e441
:0204d50001e440
:0204d60001e43f
:0204d70001e33f
:0204d80001e33e
:0204d90001e33d
:0204da0001e33c
:0204db0001e23c
:0204dc0001e23b
:0204dd0001e23a
:0204de0001e239
:0204df0001e139
:0204e00001e138
:0204e10001e137
:0204e20001e136
:0204e30001e036
:0204e40001e035
:0204e50001e034
:0204e60001e033
:0204e70001df33
:0204e80001df32
:0204e90001df31
:0204ea0001de31
:0204eb0001de30
:0204ec0001de2f
:0204ed0001de2e
:0204ee0001dd2e
:0204ef0001dd2d
:0204f00001dd2c
:0204f10001dc2c
:0204f20001dc2b
:0204f30001dc2a
:0204f40001dc29
:0204f50001db29
:0204f60001db28
:0204f70001db27
:0204f80001da27
:0204f90001da26
:0204fa0001da25
:0204fb0001da24
:0204fc0001d924
:0204fd0001d923
:0204fe0001d922
:0204ff0001d822
:0205000001d820
:0205010001d81f
:0205020001d81e
:0205030001d71e
:0205040001d71d
:0205050001d71c
:0205060001d61c
:0205070001d61b
:0205080001d61a
:0205090001d51a
:02050a0001d519
:02050b0001d518
:02050c0001d418
:02050d0001d417
:02050e0001d416
:02050f0001d316
:0205100001d315
:0205110001d314
:0205120001d313
:0205130001d213
:0205140001d212
:0205150001d211
:0205160001d111
:0205170001d110
:0205180001d10f
:0205190001d00f
:02051a0001d00e
:02051b0001d00d
:02051c0001cf0d
:02051d0001cf0c
:02051e0001cf0b
:02051f0001ce0b
:0205200001ce0a
:0205210001ce09
:0205220001cd09
:0205230001cd08
:0205240001cd07
:0205250001cc07
:0205260001cc06
:0205270001cc05
:0205280001cb05
:0205290001cb04
:02052a0001cb03
:02052b0001ca03
:02052c0001ca02
:02052d0001c902
:02052e0001c901
:02052f0001c900
:0205300001c800
:0205310001c8ff
:0205320001c8fe
:0205330001c7fe
:0205340001c7fd
:0205350001c7fc
:0205360001c6fc
:0205370001c6fb
:0205380001c6fa
:0205390001c5fa
:02053a0001c5f9
:02053b0001c4f9
:02053c0001c4f8
:02053d0001c4f7
:02053e0001c3f7
:02053f0001c3f6
:0205400001c3f5
:0205410001c2f5
:0205420001c2f4
:0205430001c2f3
:0205440001c1f3
:0205450001c1f2
:0205460001c0f2
:0205470001c0f1
:0205480001c0f0
:0205490001bff0
:02054a0001bfef
:02054b0001bfee
:02054c0001beee
:02054d0001beed
:02054e0001bded
:02054f0001bdec
:0205500001bdeb
:0205510001bceb
:0205520001bcea
:0205530001bbea
:0205540001bbe9
:0205550001bbe8
:0205560001bae8
:0205570001bae7
:0205580001b9e7
:0205590001b9e6
:02055a0001b9e5
:02055b0001b8e5
:02055c0001b8e4
:02055d0001b8e3
:02055e0001b7e3
:02055f0001b7e2
:0205600001b6e2
:0205610001b6e1
:0205620001b5e1
:0205630001b5e0
:0205640001b5df
:0205650001b4df
:0205660001b4de
:0205670001b3de
:0205680001b3dd
:0205690001b3dc
:02056a0001b2dc
:02056b0001b2db
:02056c0001b1db
:02056d0001b1da
:02056e0001b1d9
:02056f0001b0d9
:0205700001b0d8
:0205710001afd8
:0205720001afd7
:0205730001aed7
:0205740001aed6
:0205750001aed5
:0205760001add5
:0205770001add4
:0205780001acd4
:0205790001acd3
:02057a0001abd3
:02057b0001abd2
:02057c0001abd1
:02057d0001aad1
:02057e0001aad0
:02057f0001a9d0
:0205800001a9cf
:0205810001a8cf
:0205820001a8ce
:0205830001a8cd
:0205840001a7cd
:0205850001a7cc
:0205860001a6cc
:0205870001a6cb
:0205880001a5cb
:0205890001a5ca
:02058a0001a4ca
:02058b0001a4c9
:02058c0001a4c8
:02058d0001a3c8
:02058e0001a3c7
:02058f0001a2c7
:0205900001a2c6
:0205910001a1c6
:0205920001a1c5
:0205930001a0c5
:0205940001a0c4
:0205950001a0c3
:02059600019fc3
:02059700019fc2
:02059800019ec2
:02059900019ec1
:02059a00019dc1
:02059b00019dc0
:02059c00019cc0
:02059d00019cbf
:02059e00019bbf
:02059f00019bbe
:0205a000019abe
:0205a100019abd
:0205a200019abc
:0205a3000199bc
:0205a4000199bb
:0205a5000198bb
:0205a6000198ba
:0205a7000197ba
:0205a8000197b9
:0205a9000196b9
:0205aa000196b8
:0205ab000195b8
:0205ac000195b7
:0205ad000194b7
:0205ae000194b6
:0205af000193b6
:0205b0000193b5
:0205b1000192b5
:0205b2000192b4
:0205b3000191b4
:0205b4000191b3
:0205b5000190b3
:0205b6000190b2
:0205b700018fb2
:0205b800018fb1
:0205b900018eb1
:0205ba00018eb0
:0205bb00018db0
:0205bc00018daf
:0205bd00018caf
:0205be00018cae
:0205bf00018cad
:0205c000018bad
:0205c100018bac
:0205c200018aac
:0205c300018aab
:0205c4000189ab
:0205c5000189aa
:0205c6000188aa
:0205c7000188a9
:0205c8000187a9
:0205c9000186a9
:0205ca000186a8
:0205cb000185a8
:0205cc000185a7
:0205cd000184a7
:0205ce000184a6
:0205cf000183a6
:0205d0000183a5
:0205d1000182a5
:0205d2000182a4
:0205d3000181a4
:0205d4000181a3
:0205d5000180a3
:0205d6000180a2
:0205d700017fa2
:0205d800017fa1
:0205d900017ea1
:0205da00017ea0
:0205db00017da0
:0205dc00017d9f
:0205dd00017c9f
:0205de00017c9e
:0205df00017b9e
:0205e000017b9d
:0205e100017a9d
:0205e200017a9c
:0205e30001799c
:0205e40001799b
:0205e50001789b
:0205e60001779b
:0205e70001779a
:0205e80001769a
:0205e900017699
:0205ea00017599
:0205eb00017598
:0205ec00017498
:0205ed00017497
:0205ee00017397
:0205ef00017396
:0205f000017296
:0205f100017295
:0205f200017195
:0205f300017095
:0205f400017094
:0205f500016f94
:0205f600016f93
:0205f700016e93
:0205f800016e92
:0205f900016d92
:0205fa00016d91
:0205fb00016c91
:0205fc00016c90
:0205fd00016b90
:0205fe00016a90
:0205ff00016a8f
:0206000001698e
:0206010001698d
:0206020001688d
:0206030001688c
:0206040001678c
:0206050001678b
:0206060001668b
:0206070001658b
:0206080001658a
:0206090001648a
:02060a00016489
:02060b00016389
:02060c00016388
:02060d00016288
:02060e00016188
:02060f00016187
:02061000016087
:02061100016086
:02061200015f86
:02061300015f85
:02061400015e85
:02061500015e84
:02061600015d84
:02061700015c84
:02061800015c83
:02061900015b83
:02061a00015b82
:02061b00015a82
:02061c00015982
:02061d00015981
:02061e00015881
:02061f00015880
:02062000015780
:0206210001577f
:0206220001567f
:0206230001557f
:0206240001557e
:0206250001547e
:0206260001547d
:0206270001537d
:0206280001527d
:0206290001527c
:02062a0001517c
:02062b0001517b
:02062c0001507b
:02062d0001507a
:02062e00014f7a
:02062f00014e7a
:02063000014e79
:02063100014d79
:02063200014d78
:02063300014c78
:02063400014b78
:02063500014b77
:02063600014a77
:02063700014a76
:02063800014976
:02063900014876
:02063a00014875
:02063b00014775
:02063c00014774
:02063d00014674
:02063e00014574
:02063f00014573
:02064000014473
:02064100014472
:02064200014372
:02064300014272
:02064400014271
:02064500014171
:02064600014170
:02064700014070
:02064800013f70
:02064900013f6f
:02064a00013e6f
:02064b00013d6f
:02064c00013d6e
:02064d00013c6e
:02064e00013c6d
:02064f00013b6d
:02065000013a6d
:02065100013a6c
:0206520001396c
:0206530001396b
:0206540001386b
:0206550001376b
:0206560001376a
:0206570001366a
:0206580001356a
:02065900013569
:02065a00013469
:02065b00013468
:02065c00013368
:02065d00013268
:02065e00013267
:02065f00013167
:02066000013067
:02066100013066
:02066200012f66
:02066300012f65
:02066400012e65
:02066500012d65
:02066600012d64
:02066700012c64
:02066800012b64
:02066900012b63
:02066a00012a63
:02066b00012963
:02066c00012962
:02066d00012862
:02066e00012861
:02066f00012761
:02067000012661
:02067100012660
:02067200012560
:02067300012460
:0206740001245f
:0206750001235f
:0206760001225f
:0206770001225e
:0206780001215e
:0206790001205e
:02067a0001205d
:02067b00011f5d
:02067c00011e5d
:02067d00011e5c
:02067e00011d5c
:02067f00011d5b
:02068000011c5b
:02068100011b5b
:02068200011b5a
:02068300011a5a
:0206840001195a
:02068500011959
:02068600011859
:02068700011759
:02068800011758
:02068900011658
:02068a00011558
:02068b00011557
:02068c00011457
:02068d00011357
:02068e00011356
:02068f00011256
:02069000011156
:02069100011155
:02069200011055
:02069300010f55
:02069400010f54
:02069500010e54
:02069600010d54
:02069700010d53
:02069800010c53
:02069900010b53
:02069a00010b52
:02069b00010a52
:02069c00010952
:02069d00010951
:02069e00010851
:02069f00010751
:0206a000010750
:0206a100010650
:0206a200010550
:0206a30001054f
:0206a40001044f
:0206a50001034f
:0206a60001034e
:0206a70001024e
:0206a80001014e
:0206a90001014d
:0206aa0001004d
:0206ab0000ff4e
:0206ac0000ff4d
:0206ad0000fe4d
:0206ae0000fd4d
:0206af0000fd4c
:0206b00000fc4c
:0206b10000fb4c
:0206b20000fb4b
:0206b30000fa4b
:0206b40000f94b
:0206b50000f84b
:0206b60000f84a
:0206b70000f74a
:0206b80000f64a
:0206b90000f649
:0206ba0000f549
:0206bb0000f449
:0206bc0000f448
:0206bd0000f348
:0206be0000f248
:0206bf0000f247
:0206c00000f147
:0206c10000f047
:0206c20000ef47
:0206c30000ef46
:0206c40000ee46
:0206c50000ed46
:0206c60000ed45
:0206c70000ec45
:0206c80000eb45
:0206c90000eb44
:0206ca0000ea44
:0206cb0000e944
:0206cc0000e943
:0206cd0000e843
:0206ce0000e743
:0206cf0000e643
:0206d00000e642
:0206d10000e542
:0206d20000e442
:0206d30000e441
:0206d40000e341
:0206d50000e241
:0206d60000e240
:0206d70000e140
:0206d80000e040
:0206d90000df40
:0206da0000df3f
:0206db0000de3f
:0206dc0000dd3f
:0206dd0000dd3e
:0206de0000dc3e
:0206df0000db3e
:0206e00000da3e
:0206e10000da3d
:0206e20000d93d
:0206e30000d83d
:0206e40000d83c
:0206e50000d73c
:0206e60000d63c
:0206e70000d63b
:0206e80000d53b
:0206e90000d43b
:0206ea0000d33b
:0206eb0000d33a
:0206ec0000d23a
:0206ed0000d13a
:0206ee0000d139
:0206ef0000d039
:0206f00000cf39
:0206f10000ce39
:0206f20000ce38
:0206f30000cd38
:0206f40000cc38
:0206f50000cb38
:0206f60000cb37
:0206f70000ca37
:0206f80000c937
:0206f90000c936
:0206fa0000c836
:0206fb0000c736
:0206fc0000c636
:0206fd0000c635
:0206fe0000c535
:0206ff0000c435
:0207000000c433
:0207010000c333
:0207020000c233
:0207030000c133
:0207040000c132
:0207050000c032
:0207060000bf32
:0207070000be32
:0207080000be31
:0207090000bd31
:02070a0000bc31
:02070b0000bc30
:02070c0000bb30
:02070d0000ba30
:02070e0000b930
:02070f0000b92f
:0207100000b82f
:0207110000b72f
:0207120000b62f
:0207130000b62e
:0207140000b52e
:0207150000b42e
:0207160000b42d
:0207170000b32d
:0207180000b22d
:0207190000b12d
:02071a0000b12c
:02071b0000b02c
:02071c0000af2c
:02071d0000ae2c
:02071e0000ae2b
:02071f0000ad2b
:0207200000ac2b
:0207210000ab2b
:0207220000ab2a
:0207230000aa2a
:0207240000a92a
:0207250000a82a
:0207260000a829
:0207270000a729
:0207280000a629
:0207290000a529
:02072a0000a528
:02072b0000a428
:02072c0000a328
:02072d0000a327
:02072e0000a227
:02072f0000a127
:0207300000a027
:0207310000a026
:02073200009f26
:02073300009e26
:02073400009d26
:02073500009d25
:02073600009c25
:02073700009b25
:02073800009a25
:02073900009a24
:02073a00009924
:02073b00009824
:02073c00009724
:02073d00009723
:02073e00009623
:02073f00009523
:02074000009423
:02074100009422
:02074200009322
:02074300009222
:02074400009122
:02074500009121
:02074600009021
:02074700008f21
:02074800008e21
:02074900008e20
:02074a00008d20
:02074b00008c20
:02074c00008b20
:02074d00008b1f
:02074e00008a1f
:02074f0000891f
:0207500000881f
:0207510000881e
:0207520000871e
:0207530000861e
:0207540000851e
:0207550000851d
:0207560000841d
:0207570000831d
:0207580000821d
:0207590000811d
:02075a0000811c
:02075b0000801c
:02075c00007f1c
:02075d00007e1c
:02075e00007e1b
:02075f00007d1b
:02076000007c1b
:02076100007b1b
:02076200007b1a
:02076300007a1a
:0207640000791a
:0207650000781a
:02076600007819
:02076700007719
:02076800007619
:02076900007519
:02076a00007518
:02076b00007418
:02076c00007318
:02076d00007218
:02076e00007118
:02076f00007117
:02077000007017
:02077100006f17
:02077200006e17
:02077300006e16
:02077400006d16
:02077500006c16
:02077600006b16
:02077700006b15
:02077800006a15
:02077900006915
:02077a00006815
:02077b00006814
:02077c00006714
:02077d00006614
:02077e00006514
:02077f00006414
:02078000006413
:02078100006313
:02078200006213
:02078300006113
:02078400006112
:02078500006012
:02078600005f12
:02078700005e12
:02078800005e11
:02078900005d11
:02078a00005c11
:02078b00005b11
:02078c00005a11
:02078d00005a10
:02078e00005910
:02078f00005810
:02079000005710
:0207910000570f
:0207920000560f
:0207930000550f
:0207940000540f
:0207950000530f
:0207960000530e
:0207970000520e
:0207980000510e
:0207990000500e
:02079a0000500d
:02079b00004f0d
:02079c00004e0d
:02079d00004d0d
:02079e00004d0c
:02079f00004c0c
:0207a000004b0c
:0207a100004a0c
:0207a20000490c
:0207a30000490b
:0207a40000480b
:0207a50000470b
:0207a60000460b
:0207a70000460a
:0207a80000450a
:0207a90000440a
:0207aa0000430a
:0207ab0000420a
:0207ac00004209
:0207ad00004109
:0207ae00004009
:0207af00003f09
:0207b000003f08
:0207b100003e08
:0207b200003d08
:0207b300003c08
:0207b400003b08
:0207b500003b07
:0207b600003a07
:0207b700003907
:0207b800003807
:0207b900003806
:0207ba00003706
:0207bb00003606
:0207bc00003506
:0207bd00003406
:0207be00003405
:0207bf00003305
:0207c000003205
:0207c100003105
:0207c200003104
:0207c300003004
:0207c400002f04
:0207c500002e04
:0207c600002d04
:0207c700002d03
:0207c800002c03
:0207c900002b03
:0207ca00002a03
:0207cb00002903
:0207cc00002902
:0207cd00002802
:0207ce00002702
:0207cf00002602
:0207d000002601
:0207d100002501
:0207d200002401
:0207d300002301
:0207d400002201
:0207d500002200
:0207d600002100
:0207d700002000
:0207d800001f00
:0207d900001fff
:0207da00001eff
:0207db00001dff
:0207dc00001cff
:0207dd00001bff
:0207de00001bfe
:0207df00001afe
:0207e0000019fe
:0207e1000018fe
:0207e2000018fd
:0207e3000017fd
:0207e4000016fd
:0207e5000015fd
:0207e6000014fd
:0207e7000014fc
:0207e8000013fc
:0207e9000012fc
:0207ea000011fc
:0207eb000010fc
:0207ec000010fb
:0207ed00000ffb
:0207ee00000efb
:0207ef00000dfb
:0207f000000dfa
:0207f100000cfa
:0207f200000bfa
:0207f300000afa
:0207f4000009fa
:0207f5000009f9
:0207f6000008f9
:0207f7000007f9
:0207f8000006f9
:0207f9000005f9
:0207fa000005f8
:0207fb000004f8
:0207fc000003f8
:0207fd000002f8
:0207fe000002f7
:0207ff000001f7
:020800000000f6
:0208010003fff3
:0208020003fef3
:0208030003fef2
:0208040003fdf2
:0208050003fcf2
:0208060003fbf2
:0208070003fbf1
:0208080003faf1
:0208090003f9f1
:02080a0003f8f1
:02080b0003f7f1
:02080c0003f7f0
:02080d0003f6f0
:02080e0003f5f0
:02080f0003f4f0
:0208100003f3f0
:0208110003f3ef
:0208120003f2ef
:0208130003f1ef
:0208140003f0ef
:0208150003f0ee
:0208160003efee
:0208170003eeee
:0208180003edee
:0208190003ecee
:02081a0003eced
:02081b0003ebed
:02081c0003eaed
:02081d0003e9ed
:02081e0003e8ed
:02081f0003e8ec
:0208200003e7ec
:0208210003e6ec
:0208220003e5ec
:0208230003e5eb
:0208240003e4eb
:0208250003e3eb
:0208260003e2eb
:0208270003e1eb
:0208280003e1ea
:0208290003e0ea
:02082a0003dfea
:02082b0003deea
:02082c0003dee9
:02082d0003dde9
:02082e0003dce9
:02082f0003dbe9
:0208300003dae9
:0208310003dae8
:0208320003d9e8
:0208330003d8e8
:0208340003d7e8
:0208350003d7e7
:0208360003d6e7
:0208370003d5e7
:0208380003d4e7
:0208390003d3e7
:02083a0003d3e6
:02083b0003d2e6
:02083c0003d1e6
:02083d0003d0e6
:02083e0003cfe6
:02083f0003cfe5
:0208400003cee5
:0208410003cde5
:0208420003cce5
:0208430003cce4
:0208440003cbe4
:0208450003cae4
:0208460003c9e4
:0208470003c8e4
:0208480003c8e3
:0208490003c7e3
:02084a0003c6e3
:02084b0003c5e3
:02084c0003c5e2
:02084d0003c4e2
:02084e0003c3e2
:02084f0003c2e2
:0208500003c1e2
:0208510003c1e1
:0208520003c0e1
:0208530003bfe1
:0208540003bee1
:0208550003bee0
:0208560003bde0
:0208570003bce0
:0208580003bbe0
:0208590003bae0
:02085a0003badf
:02085b0003b9df
:02085c0003b8df
:02085d0003b7df
:02085e0003b7de
:02085f0003b6de
:0208600003b5de
:0208610003b4de
:0208620003b3de
:0208630003b3dd
:0208640003b2dd
:0208650003b1dd
:0208660003b0dd
:0208670003b0dc
:0208680003afdc
:0208690003aedc
:02086a0003addc
:02086b0003addb
:02086c0003acdb
:02086d0003abdb
:02086e0003aadb
:02086f0003a9db
:0208700003a9da
:0208710003a8da
:0208720003a7da
:0208730003a6da
:0208740003a6d9
:0208750003a5d9
:0208760003a4d9
:0208770003a3d9
:0208780003a2d9
:0208790003a2d8
:02087a0003a1d8
:02087b0003a0d8
:02087c00039fd8
:02087d00039fd7
:02087e00039ed7
:02087f00039dd7
:02088000039cd7
:02088100039cd6
:02088200039bd6
:02088300039ad6
:020884000399d6
:020885000398d6
:020886000398d5
:020887000397d5
:020888000396d5
:020889000395d5
:02088a000395d4
:02088b000394d4
:02088c000393d4
:02088d000392d4
:02088e000392d3
:02088f000391d3
:020890000390d3
:02089100038fd3
:02089200038fd2
:02089300038ed2
:02089400038dd2
:02089500038cd2
:02089600038bd2
:02089700038bd1
:02089800038ad1
:020899000389d1
:02089a000388d1
:02089b000388d0
:02089c000387d0
:02089d000386d0
:02089e000385d0
:02089f000385cf
:0208a0000384cf
:0208a1000383cf
:0208a2000382cf
:0208a3000382ce
:0208a4000381ce
:0208a5000380ce
:0208a600037fce
:0208a700037fcd
:0208a800037ecd
:0208a900037dcd
:0208aa00037ccd
:0208ab00037bcd
:0208ac00037bcc
:0208ad00037acc
:0208ae000379cc
:0208af000378cc
:0208b0000378cb
:0208b1000377cb
:0208b2000376cb
:0208b3000375cb
:0208b4000375ca
:0208b5000374ca
:0208b6000373ca
:0208b7000372ca
:0208b8000372c9
:0208b9000371c9
:0208ba000370c9
:0208bb00036fc9
:0208bc00036fc8
:0208bd00036ec8
:0208be00036dc8
:0208bf00036cc8
:0208c000036cc7
:0208c100036bc7
:0208c200036ac7
:0208c3000369c7
:0208c4000369c6
:0208c5000368c6
:0208c6000367c6
:0208c7000366c6
:0208c8000366c5
:0208c9000365c5
:0208ca000364c5
:0208cb000363c5
:0208cc000363c4
:0208cd000362c4
:0208ce000361c4
:0208cf000360c4
:0208d0000360c3
:0208d100035fc3
:0208d200035ec3
:0208d300035dc3
:0208d400035dc2
:0208d500035cc2
:0208d600035bc2
:0208d700035bc1
:0208d800035ac1
:0208d9000359c1
:0208da000358c1
:0208db000358c0
:0208dc000357c0
:0208dd000356c0
:0208de000355c0
:0208df000355bf
:0208e0000354bf
:0208e1000353bf
:0208e2000352bf
:0208e3000352be
:0208e4000351be
:0208e5000350be
:0208e600034fbe
:0208e700034fbd
:0208e800034ebd
:0208e900034dbd
:0208ea00034cbd
:0208eb00034cbc
:0208ec00034bbc
:0208ed00034abc
:0208ee00034abb
:0208ef000349bb
:0208f0000348bb
:0208f1000347bb
:0208f2000347ba
:0208f3000346ba
:0208f4000345ba
:0208f5000344ba
:0208f6000344b9
:0208f7000343b9
:0208f8000342b9
:0208f9000342b8
:0208fa000341b8
:0208fb000340b8
:0208fc00033fb8
:0208fd00033fb7
:0208fe00033eb7
:0208ff00033db7
:02090000033cb6
:02090100033cb5
:02090200033bb5
:02090300033ab5
:02090400033ab4
:020905000339b4
:020906000338b4
:020907000337b4
:020908000337b3
:020909000336b3
:02090a000335b3
:02090b000335b2
:02090c000334b2
:02090d000333b2
:02090e000332b2
:02090f000332b1
:020910000331b1
:020911000330b1
:02091200032fb1
:02091300032fb0
:02091400032eb0
:02091500032db0
:02091600032daf
:02091700032caf
:02091800032baf
:02091900032aaf
:02091a00032aae
:02091b000329ae
:02091c000328ae
:02091d000328ad
:02091e000327ad
:02091f000326ad
:020920000326ac
:020921000325ac
:020922000324ac
:020923000323ac
:020924000323ab
:020925000322ab
:020926000321ab
:020927000321aa
:020928000320aa
:02092900031faa
:02092a00031eaa
:02092b00031ea9
:02092c00031da9
:02092d00031ca9
:02092e00031ca8
:02092f00031ba8
:02093000031aa8
:02093100031aa7
:020932000319a7
:020933000318a7
:020934000317a7
:020935000317a6
:020936000316a6
:020937000315a6
:020938000315a5
:020939000314a5
:02093a000313a5
:02093b000313a4
:02093c000312a4
:02093d000311a4
:02093e000311a3
:02093f000310a3
:02094000030fa3
:02094100030ea3
:02094200030ea2
:02094300030da2
:02094400030ca2
:02094500030ca1
:02094600030ba1
:02094700030aa1
:02094800030aa0
:020949000309a0
:02094a000308a0
:02094b0003089f
:02094c0003079f
:02094d0003069f
:02094e0003059f
:02094f0003059e
:0209500003049e
:0209510003039e
:0209520003039d
:0209530003029d
:0209540003019d
:0209550003019c
:0209560003009c
:0209570002ff9d
:0209580002ff9c
:0209590002fe9c
:02095a0002fd9c
:02095b0002fd9b
:02095c0002fc9b
:02095d0002fb9b
:02095e0002fb9a
:02095f0002fa9a
:0209600002f99a
:0209610002f999
:0209620002f899
:0209630002f799
:0209640002f798
:0209650002f698
:0209660002f598
:0209670002f597
:0209680002f497
:0209690002f397
:02096a0002f396
:02096b0002f296
:02096c0002f196
:02096d0002f195
:02096e0002f095
:02096f0002ef95
:0209700002ef94
:0209710002ee94
:0209720002ed94
:0209730002ed93
:0209740002ec93
:0209750002eb93
:0209760002eb92
:0209770002ea92
:0209780002e992
:0209790002e991
:02097a0002e891
:02097b0002e791
:02097c0002e790
:02097d0002e690
:02097e0002e590
:02097f0002e58f
:0209800002e48f
:0209810002e38f
:0209820002e38e
:0209830002e28e
:0209840002e28d
:0209850002e18d
:0209860002e08d
:0209870002e08c
:0209880002df8c
:0209890002de8c
:02098a0002de8b
:02098b0002dd8b
:02098c0002dc8b
:02098d0002dc8a
:02098e0002db8a
:02098f0002da8a
:0209900002da89
:0209910002d989
:0209920002d889
:0209930002d888
:0209940002d788
:0209950002d787
:0209960002d687
:0209970002d587
:0209980002d586
:0209990002d486
:02099a0002d386
:02099b0002d385
:02099c0002d285
:02099d0002d185
:02099e0002d184
:02099f0002d084
:0209a00002d083
:0209a10002cf83
:0209a20002ce83
:0209a30002ce82
:0209a40002cd82
:0209a50002cc82
:0209a60002cc81
:0209a70002cb81
:0209a80002cb80
:0209a90002ca80
:0209aa0002c980
:0209ab0002c97f
:0209ac0002c87f
:0209ad0002c77f
:0209ae0002c77e
:0209af0002c67e
:0209b00002c67d
:0209b10002c57d
:0209b20002c47d
:0209b30002c47c
:0209b40002c37c
:0209b50002c37b
:0209b60002c27b
:0209b70002c17b
:0209b80002c17a
:0209b90002c07a
:0209ba0002bf7a
:0209bb0002bf79
:0209bc0002be79
:0209bd0002be78
:0209be0002bd78
:0209bf0002bc78
:0209c00002bc77
:0209c10002bb77
:0209c20002bb76
:0209c30002ba76
:0209c40002b976
:0209c50002b975
:0209c60002b875
:0209c70002b874
:0209c80002b774
:0209c90002b674
:0209ca0002b673
:0209cb0002b573
:0209cc0002b572
:0209cd0002b472
:0209ce0002b372
:0209cf0002b371
:0209d00002b271
:0209d10002b270
:0209d20002b170
:0209d30002b070
:0209d40002b06f
:0209d50002af6f
:0209d60002af6e
:0209d70002ae6e
:0209d80002ae6d
:0209d90002ad6d
:0209da0002ac6d
:0209db0002ac6c
:0209dc0002ab6c
:0209dd0002ab6b
:0209de0002aa6b
:0209df0002a96b
:0209e00002a96a
:0209e10002a86a
:0209e20002a869
:0209e30002a769
:0209e40002a768
:0209e50002a668
:0209e60002a568
:0209e70002a567
:0209e80002a467
:0209e90002a466
:0209ea0002a366
:0209eb0002a266
:0209ec0002a265
:0209ed0002a165
:0209ee0002a164
:0209ef0002a064
:0209f00002a063
:0209f100029f63
:0209f200029f62
:0209f300029e62
:0209f400029d62
:0209f500029d61
:0209f600029c61
:0209f700029c60
:0209f800029b60
:0209f900029b5f
:0209fa00029a5f
:0209fb0002995f
:0209fc0002995e
:0209fd0002985e
:0209fe0002985d
:0209ff0002975d
:020a000002975b
:020a010002965b
:020a020002965a
:020a030002955a
:020a040002945a
:020a0500029459
:020a0600029359
:020a0700029358
:020a0800029258
:020a0900029257
:020a0a00029157
:020a0b00029156
:020a0c00029056
:020a0d00029055
:020a0e00028f55
:020a0f00028e55
:020a1000028e54
:020a1100028d54
:020a1200028d53
:020a1300028c53
:020a1400028c52
:020a1500028b52
:020a1600028b51
:020a1700028a51
:020a1800028a50
:020a1900028950
:020a1a0002894f
:020a1b0002884f
:020a1c0002874f
:020a1d0002874e
:020a1e0002864e
:020a1f0002864d
:020a200002854d
:020a210002854c
:020a220002844c
:020a230002844b
:020a240002834b
:020a250002834a
:020a260002824a
:020a2700028249
:020a2800028149
:020a2900028148
:020a2a00028048
:020a2b00028047
:020a2c00027f47
:020a2d00027f46
:020a2e00027e46
:020a2f00027e45
:020a3000027d45
:020a3100027d44
:020a3200027c44
:020a3300027c43
:020a3400027b43
:020a3500027b42
:020a3600027a42
:020a3700027a41
:020a3800027941
:020a3900027841
:020a3a00027840
:020a3b00027740
:020a3c0002773f
:020a3d0002763f
:020a3e0002763e
:020a3f0002753e
:020a400002753d
:020a410002743d
:020a420002743c
:020a430002743b
:020a440002733b
:020a450002733a
:020a460002723a
:020a4700027239
:020a4800027139
:020a4900027138
:020a4a00027038
:020a4b00027037
:020a4c00026f37
:020a4d00026f36
:020a4e00026e36
:020a4f00026e35
:020a5000026d35
:020a5100026d34
:020a5200026c34
:020a5300026c33
:020a5400026b33
:020a5500026b32
:020a5600026a32
:020a5700026a31
:020a5800026931
:020a5900026930
:020a5a00026830
:020a5b0002682f
:020a5c0002672f
:020a5d0002672e
:020a5e0002662e
:020a5f0002662d
:020a600002662c
:020a610002652c
:020a620002652b
:020a630002642b
:020a640002642a
:020a650002632a
:020a6600026329
:020a6700026229
:020a6800026228
:020a6900026128
:020a6a00026127
:020a6b00026027
:020a6c00026026
:020a6d00026025
:020a6e00025f25
:020a6f00025f24
:020a7000025e24
:020a7100025e23
:020a7200025d23
:020a7300025d22
:020a7400025c22
:020a7500025c21
:020a7600025c20
:020a7700025b20
:020a7800025b1f
:020a7900025a1f
:020a7a00025a1e
:020a7b0002591e
:020a7c0002591d
:020a7d0002581d
:020a7e0002581c
:020a7f0002581b
:020a800002571b
:020a810002571a
:020a820002561a
:020a8300025619
:020a8400025519
:020a8500025518
:020a8600025517
:020a8700025417
:020a8800025416
:020a8900025316
:020a8a00025315
:020a8b00025215
:020a8c00025214
:020a8d00025213
:020a8e00025113
:020a8f00025112
:020a9000025012
:020a9100025011
:020a9200024f11
:020a9300024f10
:020a9400024f0f
:020a9500024e0f
:020a9600024e0e
:020a9700024d0e
:020a9800024d0d
:020a9900024d0c
:020a9a00024c0c
:020a9b00024c0b
:020a9c00024b0b
:020a9d00024b0a
:020a9e00024b09
:020a9f00024a09
:020aa000024a08
:020aa100024908
:020aa200024907
:020aa300024807
:020aa400024806
:020aa500024805
:020aa600024705
:020aa700024704
:020aa800024703
:020aa900024603
:020aaa00024602
:020aab00024502
:020aac00024501
:020aad00024500
:020aae00024400
:020aaf000244ff
:020ab0000243ff
:020ab1000243fe
:020ab2000243fd
:020ab3000242fd
:020ab4000242fc
:020ab5000241fc
:020ab6000241fb
:020ab7000241fa
:020ab8000240fa
:020ab9000240f9
:020aba000240f8
:020abb00023ff8
:020abc00023ff7
:020abd00023ef7
:020abe00023ef6
:020abf00023ef5
:020ac000023df5
:020ac100023df4
:020ac200023df3
:020ac300023cf3
:020ac400023cf2
:020ac500023cf1
:020ac600023bf1
:020ac700023bf0
:020ac800023af0
:020ac900023aef
:020aca00023aee
:020acb000239ee
:020acc000239ed
:020acd000239ec
:020ace000238ec
:020acf000238eb
:020ad0000238ea
:020ad1000237ea
:020ad2000237e9
:020ad3000237e8
:020ad4000236e8
:020ad5000236e7
:020ad6000235e7
:020ad7000235e6
:020ad8000235e5
:020ad9000234e5
:020ada000234e4
:020adb000234e3
:020adc000233e3
:020add000233e2
:020ade000233e1
:020adf000232e1
:020ae0000232e0
:020ae1000232df
:020ae2000231df
:020ae3000231de
:020ae4000231dd
:020ae5000230dd
:020ae6000230dc
:020ae7000230db
:020ae800022fdb
:020ae900022fda
:020aea00022fd9
:020aeb00022ed9
:020aec00022ed8
:020aed00022ed7
:020aee00022dd7
:020aef00022dd6
:020af000022dd5
:020af100022dd4
:020af200022cd4
:020af300022cd3
:020af400022cd2
:020af500022bd2
:020af600022bd1
:020af700022bd0
:020af800022ad0
:020af900022acf
:020afa00022ace
:020afb000229ce
:020afc000229cd
:020afd000229cc
:020afe000228cc
:020aff000228cb
:020b00000228c9
:020b01000228c8
:020b02000227c8
:020b03000227c7
:020b04000227c6
:020b05000226c6
:020b06000226c5
:020b07000226c4
:020b08000226c3
:020b09000225c3
:020b0a000225c2
:020b0b000225c1
:020b0c000224c1
:020b0d000224c0
:020b0e000224bf
:020b0f000224be
:020b10000223be
:020b11000223bd
:020b12000223bc
:020b13000222bc
:020b14000222bb
:020b15000222ba
:020b16000222b9
:020b17000221b9
:020b18000221b8
:020b19000221b7
:020b1a000220b7
:020b1b000220b6
:020b1c000220b5
:020b1d000220b4
:020b1e00021fb4
:020b1f00021fb3
:020b2000021fb2
:020b2100021fb1
:020b2200021eb1
:020b2300021eb0
:020b2400021eaf
:020b2500021eae
:020b2600021dae
:020b2700021dad
:020b2800021dac
:020b2900021dab
:020b2a00021cab
:020b2b00021caa
:020b2c00021ca9
:020b2d00021ca8
:020b2e00021ba8
:020b2f00021ba7
:020b3000021ba6
:020b3100021ba5
:020b3200021aa5
:020b3300021aa4
:020b3400021aa3
:020b3500021aa2
:020b36000219a2
:020b37000219a1
:020b38000219a0
:020b390002199f
:020b3a0002189f
:020b3b0002189e
:020b3c0002189d
:020b3d0002189c
:020b3e0002179c
:020b3f0002179b
:020b400002179a
:020b4100021799
:020b4200021798
:020b4300021698
:020b4400021697
:020b4500021696
:020b4600021695
:020b4700021595
:020b4800021594
:020b4900021593
:020b4a00021592
:020b4b00021591
:020b4c00021491
:020b4d00021490
:020b4e0002148f
:020b4f0002148e
:020b500002148d
:020b510002138d
:020b520002138c
:020b530002138b
:020b540002138a
:020b550002128a
:020b5600021289
:020b5700021288
:020b5800021287
:020b5900021286
:020b5a00021186
:020b5b00021185
:020b5c00021184
:020b5d00021183
:020b5e00021182
:020b5f00021181
:020b6000021081
:020b6100021080
:020b620002107f
:020b630002107e
:020b640002107d
:020b6500020f7d
:020b6600020f7c
:020b6700020f7b
:020b6800020f7a
:020b6900020f79
:020b6a00020e79
:020b6b00020e78
:020b6c00020e77
:020b6d00020e76
:020b6e00020e75
:020b6f00020e74
:020b7000020d74
:020b7100020d73
:020b7200020d72
:020b7300020d71
:020b7400020d70
:020b7500020d6f
:020b7600020c6f
:020b7700020c6e
:020b7800020c6d
:020b7900020c6c
:020b7a00020c6b
:020b7b00020c6a
:020b7c00020b6a
:020b7d00020b69
:020b7e00020b68
:020b7f00020b67
:020b8000020b66
:020b8100020b65
:020b8200020b64
:020b8300020a64
:020b8400020a63
:020b8500020a62
:020b8600020a61
:020b8700020a60
:020b8800020a5f
:020b890002095f
:020b8a0002095e
:020b8b0002095d
:020b8c0002095c
:020b8d0002095b
:020b8e0002095a
:020b8f00020959
:020b9000020958
:020b9100020858
:020b9200020857
:020b9300020856
:020b9400020855
:020b9500020854
:020b9600020853
:020b9700020852
:020b9800020752
:020b9900020751
:020b9a00020750
:020b9b0002074f
:020b9c0002074e
:020b9d0002074d
:020b9e0002074c
:020b9f0002074b
:020ba00002074a
:020ba10002064a
:020ba200020649
:020ba300020648
:020ba400020647
:020ba500020646
:020ba600020645
:020ba700020644
:020ba800020643
:020ba900020642
:020baa00020542
:020bab00020541
:020bac00020540
:020bad0002053f
:020bae0002053e
:020baf0002053d
:020bb00002053c
:020bb10002053b
:020bb20002053a
:020bb300020539
:020bb400020439
:020bb500020438
:020bb600020437
:020bb700020436
:020bb800020435
:020bb900020434
:020bba00020433
:020bbb00020432
:020bbc00020431
:020bbd00020430
:020bbe0002042f
:020bbf0002042e
:020bc00002032e
:020bc10002032d
:020bc20002032c
:020bc30002032b
:020bc40002032a
:020bc500020329
:020bc600020328
:020bc700020327
:020bc800020326
:020bc900020325
:020bca00020324
:020bcb00020323
:020bcc00020322
:020bcd00020321
:020bce00020320
:020bcf00020220
:020bd00002021f
:020bd10002021e
:020bd20002021d
:020bd30002021c
:020bd40002021b
:020bd50002021a
:020bd600020219
:020bd700020218
:020bd800020217
:020bd900020216
:020bda00020215
:020bdb00020214
:020bdc00020213
:020bdd00020212
:020bde00020211
:020bdf00020210
:020be00002020f
:020be10002020e
:020be20002020d
:020be30002020c
:020be40002010c
:020be50002010b
:020be60002010a
:020be700020109
:020be800020108
:020be900020107
:020bea00020106
:020beb00020105
:020bec00020104
:020bed00020103
:020bee00020102
:020bef00020101
:020bf000020100
:020bf1000201ff
:020bf2000201fe
:020bf3000201fd
:020bf4000201fc
:020bf5000201fb
:020bf6000201fa
:020bf7000201f9
:020bf8000201f8
:020bf9000201f7
:020bfa000201f6
:020bfb000201f5
:020bfc000201f4
:020bfd000201f3
:020bfe000201f2
:020bff000201f1
:020c00000201ef
:020c01000201ee
:020c02000201ed
:020c03000201ec
:020c04000201eb
:020c05000201ea
:020c06000201e9
:020c07000201e8
:020c08000201e7
:020c09000201e6
:020c0a000201e5
:020c0b000201e4
:020c0c000201e3
:020c0d000201e2
:020c0e000201e1
:020c0f000201e0
:020c10000201df
:020c11000201de
:020c12000201dd
:020c13000201dc
:020c14000201db
:020c15000201da
:020c16000201d9
:020c17000201d8
:020c18000201d7
:020c19000201d6
:020c1a000201d5
:020c1b000201d4
:020c1c000201d3
:020c1d000202d1
:020c1e000202d0
:020c1f000202cf
:020c20000202ce
:020c21000202cd
:020c22000202cc
:020c23000202cb
:020c24000202ca
:020c25000202c9
:020c26000202c8
:020c27000202c7
:020c28000202c6
:020c29000202c5
:020c2a000202c4
:020c2b000202c3
:020c2c000202c2
:020c2d000202c1
:020c2e000202c0
:020c2f000202bf
:020c30000202be
:020c31000202bd
:020c32000203bb
:020c33000203ba
:020c34000203b9
:020c35000203b8
:020c36000203b7
:020c37000203b6
:020c38000203b5
:020c39000203b4
:020c3a000203b3
:020c3b000203b2
:020c3c000203b1
:020c3d000203b0
:020c3e000203af
:020c3f000203ae
:020c40000203ad
:020c41000204ab
:020c42000204aa
:020c43000204a9
:020c44000204a8
:020c45000204a7
:020c46000204a6
:020c47000204a5
:020c48000204a4
:020c49000204a3
:020c4a000204a2
:020c4b000204a1
:020c4c000204a0
:020c4d0002059e
:020c4e0002059d
:020c4f0002059c
:020c500002059b
:020c510002059a
:020c5200020599
:020c5300020598
:020c5400020597
:020c5500020596
:020c5600020595
:020c5700020693
:020c5800020692
:020c5900020691
:020c5a00020690
:020c5b0002068f
:020c5c0002068e
:020c5d0002068d
:020c5e0002068c
:020c5f0002068b
:020c6000020789
:020c6100020788
:020c6200020787
:020c6300020786
:020c6400020785
:020c6500020784
:020c6600020783
:020c6700020782
:020c6800020781
:020c690002087f
:020c6a0002087e
:020c6b0002087d
:020c6c0002087c
:020c6d0002087b
:020c6e0002087a
:020c6f00020879
:020c7000020977
:020c7100020976
:020c7200020975
:020c7300020974
:020c7400020973
:020c7500020972
:020c7600020971
:020c7700020970
:020c7800020a6e
:020c7900020a6d
:020c7a00020a6c
:020c7b00020a6b
:020c7c00020a6a
:020c7d00020a69
:020c7e00020b67
:020c7f00020b66
:020c8000020b65
:020c8100020b64
:020c8200020b63
:020c8300020b62
:020c8400020b61
:020c8500020c5f
:020c8600020c5e
:020c8700020c5d
:020c8800020c5c
:020c8900020c5b
:020c8a00020c5a
:020c8b00020d58
:020c8c00020d57
:020c8d00020d56
:020c8e00020d55
:020c8f00020d54
:020c9000020d53
:020c9100020e51
:020c9200020e50
:020c9300020e4f
:020c9400020e4e
:020c9500020e4d
:020c9600020e4c
:020c9700020f4a
:020c9800020f49
:020c9900020f48
:020c9a00020f47
:020c9b00020f46
:020c9c00021044
:020c9d00021043
:020c9e00021042
:020c9f00021041
:020ca000021040
:020ca10002113e
:020ca20002113d
:020ca30002113c
:020ca40002113b
:020ca50002113a
:020ca600021139
:020ca700021237
:020ca800021236
:020ca900021235
:020caa00021234
:020cab00021233
:020cac00021331
:020cad00021330
:020cae0002132f
:020caf0002132e
:020cb00002142c
:020cb10002142b
:020cb20002142a
:020cb300021429
:020cb400021428
:020cb500021526
:020cb600021525
:020cb700021524
:020cb800021523
:020cb900021522
:020cba00021620
:020cbb0002161f
:020cbc0002161e
:020cbd0002161d
:020cbe0002171b
:020cbf0002171a
:020cc000021719
:020cc100021718
:020cc200021717
:020cc300021815
:020cc400021814
:020cc500021813
:020cc600021812
:020cc700021910
:020cc80002190f
:020cc90002190e
:020cca0002190d
:020ccb00021a0b
:020ccc00021a0a
:020ccd00021a09
:020cce00021a08
:020ccf00021b06
:020cd000021b05
:020cd100021b04
:020cd200021b03
:020cd300021c01
:020cd400021c00
:020cd500021cff
:020cd600021cfe
:020cd700021dfc
:020cd800021dfb
:020cd900021dfa
:020cda00021df9
:020cdb00021ef7
:020cdc00021ef6
:020cdd00021ef5
:020cde00021ef4
:020cdf00021ff2
:020ce000021ff1
:020ce100021ff0
:020ce200021fef
:020ce3000220ed
:020ce4000220ec
:020ce5000220eb
:020ce6000220ea
:020ce7000221e8
:020ce8000221e7
:020ce9000221e6
:020cea000222e4
:020ceb000222e3
:020cec000222e2
:020ced000222e1
:020cee000223df
:020cef000223de
:020cf0000223dd
:020cf1000224db
:020cf2000224da
:020cf3000224d9
:020cf4000224d8
:020cf5000225d6
:020cf6000225d5
:020cf7000225d4
:020cf8000226d2
:020cf9000226d1
:020cfa000226d0
:020cfb000226cf
:020cfc000227cd
:020cfd000227cc
:020cfe000227cb
:020cff000228c9
:020d00000228c7
:020d01000228c6
:020d02000228c5
:020d03000229c3
:020d04000229c2
:020d05000229c1
:020d0600022abf
:020d0700022abe
:020d0800022abd
:020d0900022bbb
:020d0a00022bba
:020d0b00022bb9
:020d0c00022cb7
:020d0d00022cb6
:020d0e00022cb5
:020d0f00022db3
:020d1000022db2
:020d1100022db1
:020d1200022db0
:020d1300022eae
:020d1400022ead
:020d1500022eac
:020d1600022faa
:020d1700022fa9
:020d1800022fa8
:020d19000230a6
:020d1a000230a5
:020d1b000230a4
:020d1c000231a2
:020d1d000231a1
:020d1e000231a0
:020d1f0002329e
:020d200002329d
:020d210002329c
:020d220002339a
:020d2300023399
:020d2400023398
:020d2500023496
:020d2600023495
:020d2700023494
:020d2800023592
:020d2900023591
:020d2a00023590
:020d2b0002368e
:020d2c0002368d
:020d2d0002378b
:020d2e0002378a
:020d2f00023789
:020d3000023887
:020d3100023886
:020d3200023885
:020d3300023983
:020d3400023982
:020d3500023981
:020d3600023a7f
:020d3700023a7e
:020d3800023a7d
:020d3900023b7b
:020d3a00023b7a
:020d3b00023c78
:020d3c00023c77
:020d3d00023c76
:020d3e00023d74
:020d3f00023d73
:020d4000023d72
:020d4100023e70
:020d4200023e6f
:020d4300023e6e
:020d4400023f6c
:020d4500023f6b
:020d4600024069
:020d4700024068
:020d4800024067
:020d4900024165
:020d4a00024164
:020d4b00024163
:020d4c00024261
:020d4d00024260
:020d4e0002435e
:020d4f0002435d
:020d500002435c
:020d510002445a
:020d5200024459
:020d5300024557
:020d5400024556
:020d5500024555
:020d5600024653
:020d5700024652
:020d5800024750
:020d590002474f
:020d5a0002474e
:020d5b0002484c
:020d5c0002484b
:020d5d0002484a
:020d5e00024948
:020d5f00024947
:020d6000024a45
:020d6100024a44
:020d6200024b42
:020d6300024b41
:020d6400024b40
:020d6500024c3e
:020d6600024c3d
:020d6700024d3b
:020d6800024d3a
:020d6900024d39
:020d6a00024e37
:020d6b00024e36
:020d6c00024f34
:020d6d00024f33
:020d6e00024f32
:020d6f00025030
:020d700002502f
:020d710002512d
:020d720002512c
:020d730002522a
:020d7400025229
:020d7500025228
:020d7600025326
:020d7700025325
:020d7800025423
:020d7900025422
:020d7a00025520
:020d7b0002551f
:020d7c0002551e
:020d7d0002561c
:020d7e0002561b
:020d7f00025719
:020d8000025718
:020d8100025816
:020d8200025815
:020d8300025814
:020d8400025912
:020d8500025911
:020d8600025a0f
:020d8700025a0e
:020d8800025b0c
:020d8900025b0b
:020d8a00025c09
:020d8b00025c08
:020d8c00025c07
:020d8d00025d05
:020d8e00025d04
:020d8f00025e02
:020d9000025e01
:020d9100025fff
:020d9200025ffe
:020d93000260fc
:020d94000260fb
:020d95000260fa
:020d96000261f8
:020d97000261f7
:020d98000262f5
:020d99000262f4
:020d9a000263f2
:020d9b000263f1
:020d9c000264ef
:020d9d000264ee
:020d9e000265ec
:020d9f000265eb
:020da0000266e9
:020da1000266e8
:020da2000266e7
:020da3000267e5
:020da4000267e4
:020da5000268e2
:020da6000268e1
:020da7000269df
:020da8000269de
:020da900026adc
:020daa00026adb
:020dab00026bd9
:020dac00026bd8
:020dad00026cd6
:020dae00026cd5
:020daf00026dd3
:020db000026dd2
:020db100026ed0
:020db200026ecf
:020db300026fcd
:020db400026fcc
:020db5000270ca
:020db6000270c9
:020db7000271c7
:020db8000271c6
:020db9000272c4
:020dba000272c3
:020dbb000273c1
:020dbc000273c0
:020dbd000274be
:020dbe000274bd
:020dbf000274bc
:020dc0000275ba
:020dc1000275b9
:020dc2000276b7
:020dc3000276b6
:020dc4000277b4
:020dc5000277b3
:020dc6000278b1
:020dc7000278b0
:020dc8000279ae
:020dc900027aac
:020dca00027aab
:020dcb00027ba9
:020dcc00027ba8
:020dcd00027ca6
:020dce00027ca5
:020dcf00027da3
:020dd000027da2
:020dd100027ea0
:020dd200027e9f
:020dd300027f9d
:020dd400027f9c
:020dd50002809a
:020dd600028099
:020dd700028197
:020dd800028196
:020dd900028294
:020dda00028293
:020ddb00028391
:020ddc00028390
:020ddd0002848e
:020dde0002848d
:020ddf0002858b
:020de00002858a
:020de100028688
:020de200028687
:020de300028785
:020de400028784
:020de500028882
:020de600028980
:020de70002897f
:020de800028a7d
:020de900028a7c
:020dea00028b7a
:020deb00028b79
:020dec00028c77
:020ded00028c76
:020dee00028d74
:020def00028d73
:020df000028e71
:020df100028e70
:020df200028f6e
:020df30002906c
:020df40002906b
:020df500029169
:020df600029168
:020df700029266
:020df800029265
:020df900029363
:020dfa00029362
:020dfb00029460
:020dfc0002945f
:020dfd0002955d
:020dfe0002965b
:020dff0002965a
:020e0000029757
:020e0100029756
:020e0200029854
:020e0300029853
:020e0400029951
:020e0500029950
:020e0600029a4e
:020e0700029b4c
:020e0800029b4b
:020e0900029c49
:020e0a00029c48
:020e0b00029d46
:020e0c00029d45
:020e0d00029e43
:020e0e00029f41
:020e0f00029f40
:020e100002a03e
:020e110002a03d
:020e120002a13b
:020e130002a13a
:020e140002a238
:020e150002a237
:020e160002a335
:020e170002a433
:020e180002a432
:020e190002a530
:020e1a0002a52f
:020e1b0002a62d
:020e1c0002a72b
:020e1d0002a72a
:020e1e0002a828
:020e1f0002a827
:020e200002a925
:020e210002a924
:020e220002aa22
:020e230002ab20
:020e240002ab1f
:020e250002ac1d
:020e260002ac1c
:020e270002ad1a
:020e280002ae18
:020e290002ae17
:020e2a0002af15
:020e2b0002af14
:020e2c0002b012
:020e2d0002b011
:020e2e0002b10f
:020e2f0002b20d
:020e300002b20c
:020e310002b30a
:020e320002b309
:020e330002b407
:020e340002b505
:020e350002b504
:020e360002b602
:020e370002b601
:020e380002b7ff
:020e390002b8fd
:020e3a0002b8fc
:020e3b0002b9fa
:020e3c0002b9f9
:020e3d0002baf7
:020e3e0002bbf5
:020e3f0002bbf4
:020e400002bcf2
:020e410002bcf1
:020e420002bdef
:020e430002beed
:020e440002beec
:020e450002bfea
:020e460002bfe9
:020e470002c0e7
:020e480002c1e5
:020e490002c1e4
:020e4a0002c2e2
:020e4b0002c3e0
:020e4c0002c3df
:020e4d0002c4dd
:020e4e0002c4dc
:020e4f0002c5da
:020e500002c6d8
:020e510002c6d7
:020e520002c7d5
:020e530002c7d4
:020e540002c8d2
:020e550002c9d0
:020e560002c9cf
:020e570002cacd
:020e580002cbcb
:020e590002cbca
:020e5a0002ccc8
:020e5b0002ccc7
:020e5c0002cdc5
:020e5d0002cec3
:020e5e0002cec2
:020e5f0002cfc0
:020e600002d0be
:020e610002d0bd
:020e620002d1bb
:020e630002d1ba
:020e640002d2b8
:020e650002d3b6
:020e660002d3b5
:020e670002d4b3
:020e680002d5b1
:020e690002d5b0
:020e6a0002d6ae
:020e6b0002d7ac
:020e6c0002d7ab
:020e6d0002d8a9
:020e6e0002d8a8
:020e6f0002d9a6
:020e700002daa4
:020e710002daa3
:020e720002dba1
:020e730002dc9f
:020e740002dc9e
:020e750002dd9c
:020e760002de9a
:020e770002de99
:020e780002df97
:020e790002e095
:020e7a0002e094
:020e7b0002e192
:020e7c0002e290
:020e7d0002e28f
:020e7e0002e38d
:020e7f0002e38c
:020e800002e48a
:020e810002e588
:020e820002e587
:020e830002e685
:020e840002e783
:020e850002e782
:020e860002e880
:020e870002e97e
:020e880002e97d
:020e890002ea7b
:020e8a0002eb79
:020e8b0002eb78
:020e8c0002ec76
:020e8d0002ed74
:020e8e0002ed73
:020e8f0002ee71
:020e900002ef6f
:020e910002ef6e
:020e920002f06c
:020e930002f16a
:020e940002f169
:020e950002f267
:020e960002f365
:020e970002f364
:020e980002f462
:020e990002f560
:020e9a0002f55f
:020e9b0002f65d
:020e9c0002f75b
:020e9d0002f75a
:020e9e0002f858
:020e9f0002f956
:020ea00002f955
:020ea10002fa53
:020ea20002fb51
:020ea30002fb50
:020ea40002fc4e
:020ea50002fd4c
:020ea60002fd4b
:020ea70002fe49
:020ea80002ff47
:020ea90002ff46
:020eaa00030043
:020eab00030141
:020eac00030140
:020ead0003023e
:020eae0003033c
:020eaf0003033b
:020eb000030439
:020eb100030537
:020eb200030536
:020eb300030634
:020eb400030732
:020eb500030830
:020eb60003082f
:020eb70003092d
:020eb800030a2b
:020eb900030a2a
:020eba00030b28
:020ebb00030c26
:020ebc00030c25
:020ebd00030d23
:020ebe00030e21
:020ebf00030e20
:020ec000030f1e
:020ec10003101c
:020ec20003111a
:020ec300031119
:020ec400031217
:020ec500031315
:020ec600031314
:020ec700031412
:020ec800031510
:020ec90003150f
:020eca0003160d
:020ecb0003170b
:020ecc0003170a
:020ecd00031808
:020ece00031906
:020ecf00031a04
:020ed000031a03
:020ed100031b01
:020ed200031cff
:020ed300031cfe
:020ed400031dfc
:020ed500031efa
:020ed600031ef9
:020ed700031ff7
:020ed8000320f5
:020ed9000321f3
:020eda000321f2
:020edb000322f0
:020edc000323ee
:020edd000323ed
:020ede000324eb
:020edf000325e9
:020ee0000326e7
:020ee1000326e6
:020ee2000327e4
:020ee3000328e2
:020ee4000328e1
:020ee5000329df
:020ee600032add
:020ee700032adc
:020ee800032bda
:020ee900032cd8
:020eea00032dd6
:020eeb00032dd5
:020eec00032ed3
:020eed00032fd1
:020eee00032fd0
:020eef000330ce
:020ef0000331cc
:020ef1000332ca
:020ef2000332c9
:020ef3000333c7
:020ef4000334c5
:020ef5000335c3
:020ef6000335c2
:020ef7000336c0
:020ef8000337be
:020ef9000337bd
:020efa000338bb
:020efb000339b9
:020efc00033ab7
:020efd00033ab6
:020efe00033bb4
:020eff00033cb2
:020f0000033cb0
:020f0100033dae
:020f0200033eac
:020f0300033faa
:020f0400033fa9
:020f05000340a7
:020f06000341a5
:020f07000342a3
:020f08000342a2
:020f09000343a0
:020f0a0003449e
:020f0b0003449d
:020f0c0003459b
:020f0d00034699
:020f0e00034797
:020f0f00034796
:020f1000034894
:020f1100034992
:020f1200034a90
:020f1300034a8f
:020f1400034b8d
:020f1500034c8b
:020f1600034c8a
:020f1700034d88
:020f1800034e86
:020f1900034f84
:020f1a00034f83
:020f1b00035081
:020f1c0003517f
:020f1d0003527d
:020f1e0003527c
:020f1f0003537a
:020f2000035478
:020f2100035576
:020f2200035575
:020f2300035673
:020f2400035771
:020f250003586f
:020f260003586e
:020f270003596c
:020f2800035a6a
:020f2900035b68
:020f2a00035b67
:020f2b00035c65
:020f2c00035d63
:020f2d00035d62
:020f2e00035e60
:020f2f00035f5e
:020f300003605c
:020f310003605b
:020f3200036159
:020f3300036257
:020f3400036355
:020f3500036354
:020f3600036452
:020f3700036550
:020f380003664e
:020f390003664d
:020f3a0003674b
:020f3b00036849
:020f3c00036947
:020f3d00036946
:020f3e00036a44
:020f3f00036b42
:020f4000036c40
:020f4100036c3f
:020f4200036d3d
:020f4300036e3b
:020f4400036f39
:020f4500036f38
:020f4600037036
:020f4700037134
:020f4800037232
:020f4900037231
:020f4a0003732f
:020f4b0003742d
:020f4c0003752b
:020f4d0003752a
:020f4e00037628
:020f4f00037726
:020f5000037824
:020f5100037823
:020f5200037921
:020f5300037a1f
:020f5400037b1d
:020f5500037b1c
:020f5600037c1a
:020f5700037d18
:020f5800037e16
:020f5900037f14
:020f5a00037f13
:020f5b00038011
:020f5c0003810f
:020f5d0003820d
:020f5e0003820c
:020f5f0003830a
:020f6000038408
:020f6100038506
:020f6200038505
:020f6300038603
:020f6400038701
:020f65000388ff
:020f66000388fe
:020f67000389fc
:020f6800038afa
:020f6900038bf8
:020f6a00038bf7
:020f6b00038cf5
:020f6c00038df3
:020f6d00038ef1
:020f6e00038fef
:020f6f00038fee
:020f70000390ec
:020f71000391ea
:020f72000392e8
:020f73000392e7
:020f74000393e5
:020f75000394e3
:020f76000395e1
:020f77000395e0
:020f78000396de
:020f79000397dc
:020f7a000398da
:020f7b000398d9
:020f7c000399d7
:020f7d00039ad5
:020f7e00039bd3
:020f7f00039cd1
:020f8000039cd0
:020f8100039dce
:020f8200039ecc
:020f8300039fca
:020f8400039fc9
:020f850003a0c7
:020f860003a1c5
:020f870003a2c3
:020f880003a2c2
:020f890003a3c0
:020f8a0003a4be
:020f8b0003a5bc
:020f8c0003a6ba
:020f8d0003a6b9
:020f8e0003a7b7
:020f8f0003a8b5
:020f900003a9b3
:020f910003a9b2
:020f920003aab0
:020f930003abae
:020f940003acac
:020f950003adaa
:020f960003ada9
:020f970003aea7
:020f980003afa5
:020f990003b0a3
:020f9a0003b0a2
:020f9b0003b1a0
:020f9c0003b29e
:020f9d0003b39c
:020f9e0003b39b
:020f9f0003b499
